{
  "_format": "hh-sol-artifact-1",
  "contractName": "EscrowFactory",
  "sourceName": "contracts/EscrowFactory.sol",
  "abi": [
    {
      "inputs": [],
      "stateMutability": "nonpayable",
      "type": "constructor"
    },
    {
      "anonymous": false,
      "inputs": [
        {
          "indexed": false,
          "internalType": "address",
          "name": "previousAdmin",
          "type": "address"
        },
        {
          "indexed": false,
          "internalType": "address",
          "name": "newAdmin",
          "type": "address"
        }
      ],
      "name": "AdminChanged",
      "type": "event"
    },
    {
      "anonymous": false,
      "inputs": [
        {
          "indexed": true,
          "internalType": "address",
          "name": "beacon",
          "type": "address"
        }
      ],
      "name": "BeaconUpgraded",
      "type": "event"
    },
    {
      "anonymous": false,
      "inputs": [
        {
          "indexed": false,
          "internalType": "uint8",
          "name": "version",
          "type": "uint8"
        }
      ],
      "name": "Initialized",
      "type": "event"
    },
    {
      "anonymous": false,
      "inputs": [
        {
          "indexed": false,
          "internalType": "address",
          "name": "token",
          "type": "address"
        },
        {
          "indexed": false,
          "internalType": "address",
          "name": "escrow",
          "type": "address"
        }
      ],
      "name": "Launched",
      "type": "event"
    },
    {
      "anonymous": false,
      "inputs": [
        {
          "indexed": false,
          "internalType": "address",
          "name": "token",
          "type": "address"
        },
        {
          "indexed": false,
          "internalType": "address",
          "name": "escrow",
          "type": "address"
        },
        {
          "indexed": false,
          "internalType": "string",
          "name": "jobRequesterId",
          "type": "string"
        }
      ],
      "name": "LaunchedV2",
      "type": "event"
    },
    {
      "anonymous": false,
      "inputs": [
        {
          "indexed": true,
          "internalType": "address",
          "name": "previousOwner",
          "type": "address"
        },
        {
          "indexed": true,
          "internalType": "address",
          "name": "newOwner",
          "type": "address"
        }
      ],
      "name": "OwnershipTransferred",
      "type": "event"
    },
    {
      "anonymous": false,
      "inputs": [
        {
          "indexed": true,
          "internalType": "address",
          "name": "implementation",
          "type": "address"
        }
      ],
      "name": "Upgraded",
      "type": "event"
    },
    {
      "inputs": [],
      "name": "counter",
      "outputs": [
        {
          "internalType": "uint256",
          "name": "",
          "type": "uint256"
        }
      ],
      "stateMutability": "view",
      "type": "function"
    },
    {
      "inputs": [
        {
          "internalType": "address",
          "name": "token",
          "type": "address"
        },
        {
          "internalType": "address[]",
          "name": "trustedHandlers",
          "type": "address[]"
        },
        {
          "internalType": "string",
          "name": "jobRequesterId",
          "type": "string"
        }
      ],
      "name": "createEscrow",
      "outputs": [
        {
          "internalType": "address",
          "name": "",
          "type": "address"
        }
      ],
      "stateMutability": "nonpayable",
      "type": "function"
    },
    {
      "inputs": [
        {
          "internalType": "address",
          "name": "",
          "type": "address"
        }
      ],
      "name": "escrowCounters",
      "outputs": [
        {
          "internalType": "uint256",
          "name": "",
          "type": "uint256"
        }
      ],
      "stateMutability": "view",
      "type": "function"
    },
    {
      "inputs": [
        {
          "internalType": "address",
          "name": "_address",
          "type": "address"
        }
      ],
      "name": "hasEscrow",
      "outputs": [
        {
          "internalType": "bool",
          "name": "",
          "type": "bool"
        }
      ],
      "stateMutability": "view",
      "type": "function"
    },
    {
      "inputs": [
        {
          "internalType": "address",
          "name": "_staking",
          "type": "address"
        }
      ],
      "name": "initialize",
      "outputs": [],
      "stateMutability": "payable",
      "type": "function"
    },
    {
      "inputs": [],
      "name": "lastEscrow",
      "outputs": [
        {
          "internalType": "address",
          "name": "",
          "type": "address"
        }
      ],
      "stateMutability": "view",
      "type": "function"
    },
    {
      "inputs": [],
      "name": "owner",
      "outputs": [
        {
          "internalType": "address",
          "name": "",
          "type": "address"
        }
      ],
      "stateMutability": "view",
      "type": "function"
    },
    {
      "inputs": [],
      "name": "proxiableUUID",
      "outputs": [
        {
          "internalType": "bytes32",
          "name": "",
          "type": "bytes32"
        }
      ],
      "stateMutability": "view",
      "type": "function"
    },
    {
      "inputs": [],
      "name": "renounceOwnership",
      "outputs": [],
      "stateMutability": "nonpayable",
      "type": "function"
    },
    {
      "inputs": [],
      "name": "staking",
      "outputs": [
        {
          "internalType": "address",
          "name": "",
          "type": "address"
        }
      ],
      "stateMutability": "view",
      "type": "function"
    },
    {
      "inputs": [
        {
          "internalType": "address",
          "name": "newOwner",
          "type": "address"
        }
      ],
      "name": "transferOwnership",
      "outputs": [],
      "stateMutability": "nonpayable",
      "type": "function"
    },
    {
      "inputs": [
        {
          "internalType": "address",
          "name": "newImplementation",
          "type": "address"
        }
      ],
      "name": "upgradeTo",
      "outputs": [],
      "stateMutability": "nonpayable",
      "type": "function"
    },
    {
      "inputs": [
        {
          "internalType": "address",
          "name": "newImplementation",
          "type": "address"
        },
        {
          "internalType": "bytes",
          "name": "data",
          "type": "bytes"
        }
      ],
      "name": "upgradeToAndCall",
      "outputs": [],
      "stateMutability": "payable",
      "type": "function"
    }
  ],
  "bytecode": "0x60a080604052346100dc57306080526000549060ff8260081c1661008a575060ff8082160361004f575b604051613b5690816100e282396080518181816107ac015281816108ac0152610b7a0152f35b60ff90811916176000557f7f26b83ff96e1f2b6a682f133852f6798a09c465da95921460cefb3847402498602060405160ff8152a138610029565b62461bcd60e51b815260206004820152602760248201527f496e697469616c697a61626c653a20636f6e747261637420697320696e697469604482015266616c697a696e6760c81b6064820152608490fd5b600080fdfe604060808152600490813610156200001657600080fd5b600091823560e01c80633659cfe61462000b4f5780633cc3e58d1462000b245780634cf088d91462000af95780634f1ef286146200085657806352d1902d146200079557806358d276f7146200075757806361bc221a1462000736578063715018a614620006e65780637e59879714620003c15780638da5cb5b1462000396578063979530e61462000356578063c4d66de8146200015b5763f2fde38b14620000be57600080fd5b34620001575760203660031901126200015757620000db62000dda565b91620000e662000f88565b6001600160a01b03831615620001055783620001028462000fe1565b80f35b906020608492519162461bcd60e51b8352820152602660248201527f4f776e61626c653a206e6577206f776e657220697320746865207a65726f206160448201526564647265737360d01b6064820152fd5b8280fd5b50602036600319011262000157576200017362000dda565b9083549060ff8260081c16159182809362000348575b80156200032f575b15620002d55760ff198116600117865582620002c3575b50620001bb60ff865460081c1662001019565b620001c63362000fe1565b845492620001da60ff8560081c1662001019565b84516001600160a01b039190911691908086016001600160401b03811182821017620002b0578652601b81527a457363726f77466163746f72793a205a65726f204164647265737360281b602082015282156200028857505060cc80546001600160a01b03191691909117905562000250578280f35b61ff001916825551600181527f7f26b83ff96e1f2b6a682f133852f6798a09c465da95921460cefb384740249890602090a138808280f35b90620002ac602092875193849362461bcd60e51b8552840152602483019062000f46565b0390fd5b634e487b7160e01b885260418352602488fd5b61ffff191661010117855538620001a8565b845162461bcd60e51b8152602081840152602e60248201527f496e697469616c697a61626c653a20636f6e747261637420697320616c72656160448201526d191e481a5b9a5d1a585b1a5e995960921b6064820152608490fd5b50303b158015620001915750600160ff82161462000191565b50600160ff82161062000189565b50503462000392576020366003190112620003925760209181906001600160a01b036200038262000dda565b16815260ca845220549051908152f35b5080fd5b505034620003925781600319360112620003925760335490516001600160a01b039091168152602090f35b508234620006e3576060366003190112620006e357620003e062000dda565b6001600160401b039360248035949192868611620006df5736602387011215620006df578583013592878411620006cd578360051b936020978651916200042a8a88018462000e28565b8252888201858197830101913683116200068e578601905b828210620006a857505050604435898111620006a45736602382011215620006a457620004789036908681860135910162000e68565b948460018060a01b03948a8660cc54168a5193848092630d7cb1d560e11b8252338a8301525afa9182156200069a578a9262000657575b5060018092151503620005fe57885193612875808601809e878210911117620005ec578c9d8695949260c0929e9b9c9d9e620011ac88398960a0830195169b8c835233908301528d33908301526283d600606083015260a06080830152518094520192918d8d905b828210620005d2575050505050039088f0928315620005c85760c954916000198314620005b757505060010160c9819055911680865260ca8752948490205560cb80546001600160a01b03191685179055825190815280850184905260608184018190527fde4a6895269de599430e1230956361cbe11b52ad149311a97123c73666c52141928291620005ae919083019062000f46565b0390a151908152f35b634e487b7160e01b89526011905287fd5b86513d89823e3d90fd5b84518a168652879650948501949093019282018e62000517565b634e487b7160e01b8c5260418752888cfd5b885162461bcd60e51b81528086018c9052602e818901527f4e6565647320746f207374616b6520484d5420746f6b656e7320746f2063726560448201526d30ba329030b71032b9b1b937bb9760911b6064820152608490fd5b9091508a81813d831162000692575b62000672818362000e28565b810103126200068e575180151581036200068e57908c620004af565b8980fd5b503d62000666565b89513d8c823e3d90fd5b8780fd5b81356001600160a01b0381168103620006c9578152908a01908a0162000442565b8a80fd5b634e487b7160e01b8652604190528185fd5b8480fd5b80fd5b8334620006e35780600319360112620006e3576200070362000f88565b603380546001600160a01b0319811690915581906001600160a01b031660008051602062003a818339815191528280a380f35b505034620003925781600319360112620003925760209060c9549051908152f35b50503462000392576020366003190112620003925760209181906001600160a01b036200078362000dda565b16815260ca8452205415159051908152f35b508234620006e35780600319360112620006e357507f00000000000000000000000000000000000000000000000000000000000000006001600160a01b03163003620007f3576020825160008051602062003a618339815191528152f35b6020608492519162461bcd60e51b8352820152603860248201527f555550535570677261646561626c653a206d757374206e6f742062652063616c6044820152771b1959081d1a1c9bdd59da0819195b1959d85d1958d85b1b60421b6064820152fd5b50908060031936011262000157576200086e62000dda565b906024356001600160401b038111620006df5736602382011215620006df57620008a2903690602481870135910162000e68565b6001600160a01b037f00000000000000000000000000000000000000000000000000000000000000008116929190620008de3085141562000ea4565b620008fe60008051602062003a6183398151915294828654161462000ef5565b6200090862000f88565b60008051602062003a218339815191525460ff16156200093257505050506200010291506200107a565b82516352d1902d60e01b81526020959394918416919086818981865afa89918162000ac4575b50620009a757855162461bcd60e51b8152808901889052602e602482015260008051602062003b0183398151915260448201526d6f6e206973206e6f74205555505360901b6064820152608490fd5b969192959493960362000a805750620009c0856200107a565b60008051602062003aa18339815191528680a282511580159062000a77575b620009ec575b5050505080f35b62000a6193858083519562000a018762000df6565b6027875260008051602062003ae183398151915286880152660819985a5b195960ca1b858801528581519101845af4913d1562000a6c573d62000a5262000a488262000e4c565b9251928362000e28565b81528681943d92013e6200110c565b5038808080620009e5565b50606092506200110c565b506001620009df565b825162461bcd60e51b81529081018490526029602482015260008051602062003ac18339815191526044820152681a58589b195555525160ba1b6064820152608490fd5b9091508781813d831162000af1575b62000adf818362000e28565b810103126200068e5751903862000958565b503d62000ad3565b505034620003925781600319360112620003925760cc5490516001600160a01b039091168152602090f35b505034620003925781600319360112620003925760cb5490516001600160a01b039091168152602090f35b509034620001575760208060031936011262000dd65762000b6f62000dda565b916001600160a01b037f0000000000000000000000000000000000000000000000000000000000000000811662000ba93082141562000ea4565b62000bc960008051602062003a6183398151915291838354161462000ef5565b62000bd362000f88565b8251848101929091906001600160401b0384118385101762000dc35783855288835260008051602062003a218339815191525460ff161562000c21575050505050506200010291506200107a565b869293949596169085516352d1902d60e01b815287818a81865afa8a918162000d8e575b5062000c9457865162461bcd60e51b8152808a01899052602e602482015260008051602062003b0183398151915260448201526d6f6e206973206e6f74205555505360901b6064820152608490fd5b97919293969594970362000d4a575062000cae826200107a565b60008051602062003aa18339815191528780a28584511580159062000d42575b62000cdd575b50505050505080f35b8062000d359684519662000cf18862000df6565b6027885260008051602062003ae183398151915287890152660819985a5b195960ca1b868901525190845af4913d1562000a6c573d62000a5262000a488262000e4c565b5038808080808562000cd4565b508062000cce565b835162461bcd60e51b81529081018590526029602482015260008051602062003ac18339815191526044820152681a58589b195555525160ba1b6064820152608490fd5b9091508881813d831162000dbb575b62000da9818362000e28565b81010312620006c95751903862000c45565b503d62000d9d565b634e487b7160e01b895260418852602489fd5b8380fd5b600435906001600160a01b038216820362000df157565b600080fd5b606081019081106001600160401b0382111762000e1257604052565b634e487b7160e01b600052604160045260246000fd5b601f909101601f19168101906001600160401b0382119082101762000e1257604052565b6001600160401b03811162000e1257601f01601f191660200190565b92919262000e768262000e4c565b9162000e86604051938462000e28565b82948184528183011162000df1578281602093846000960137010152565b1562000eac57565b60405162461bcd60e51b815260206004820152602c602482015260008051602062003a4183398151915260448201526b19195b1959d85d1958d85b1b60a21b6064820152608490fd5b1562000efd57565b60405162461bcd60e51b815260206004820152602c602482015260008051602062003a4183398151915260448201526b6163746976652070726f787960a01b6064820152608490fd5b919082519283825260005b84811062000f73575050826000602080949584010152601f8019910116010190565b60208183018101518483018201520162000f51565b6033546001600160a01b0316330362000f9d57565b606460405162461bcd60e51b815260206004820152602060248201527f4f776e61626c653a2063616c6c6572206973206e6f7420746865206f776e65726044820152fd5b603380546001600160a01b039283166001600160a01b03198216811790925590911660008051602062003a81833981519152600080a3565b156200102157565b60405162461bcd60e51b815260206004820152602b60248201527f496e697469616c697a61626c653a20636f6e7472616374206973206e6f74206960448201526a6e697469616c697a696e6760a81b6064820152608490fd5b803b15620010b15760008051602062003a6183398151915280546001600160a01b0319166001600160a01b03909216919091179055565b60405162461bcd60e51b815260206004820152602d60248201527f455243313936373a206e657720696d706c656d656e746174696f6e206973206e60448201526c1bdd08184818dbdb9d1c9858dd609a1b6064820152608490fd5b9192901562001171575081511562001122575090565b3b156200112c5790565b60405162461bcd60e51b815260206004820152601d60248201527f416464726573733a2063616c6c20746f206e6f6e2d636f6e74726163740000006044820152606490fd5b825190915015620011855750805190602001fd5b60405162461bcd60e51b815260206004820152908190620002ac90602483019062000f4656fe60406080815234620002a4576200287590813803806200001f81620002bf565b938439820160a083820312620002a4576200003a83620002e5565b9260206200004a818301620002e5565b94848301519260018060a01b0391828516809503620002a457606082015195608083015160018060401b0393848211620002a4570181601f82011215620002a4578051938411620002a9578360051b908680620000a9818501620002bf565b809781520192820101928311620002a45786809101915b8383106200028957505050506001948360009287845516620000ee620000e5620002fa565b82151562000344565b62000105620000fc620002fa565b83151562000344565b600780546001600160a01b03199081169092179055865460ff19908116885597428101908181116200027557811062000231578798999a8691600d5516908181600454161760045582816005541617600555339060065416176006558252600e90600e8652898320878a8254161790558252888220868982541617905581955b6200019a575b885161249b9081620003da8239f35b82518610156200022b578686620001cd86620001b8849a88620003ae565b51161515620001c6620002fa565b9062000344565b85620001da8287620003ae565b511684528287528a8420828b8254161790557fad3769ac0c1a91ee9dcf369f6d2989f91572b6f876933bbc82ab85f6b969a07a87876200021b8489620003ae565b51168d51908152a1019562000185565b6200018b565b895162461bcd60e51b815260048101889052601b60248201527f536166654d6174683a206164646974696f6e206f766572666c6f7700000000006044820152606490fd5b634e487b7160e01b85526011600452602485fd5b81906200029684620002e5565b8152019101908690620000c0565b600080fd5b634e487b7160e01b600052604160045260246000fd5b6040519190601f01601f191682016001600160401b03811183821017620002a957604052565b51906001600160a01b0382168203620002a457565b60408051919082016001600160401b03811183821017620002a957604052601482527f457363726f773a207a65726f20616464726573730000000000000000000000006020830152565b156200034d5750565b6040519062461bcd60e51b82528160208060048301528251908160248401526000935b82851062000394575050604492506000838284010152601f80199101168101030190fd5b848101820151868601604401529381019385935062000370565b8051821015620003c35760209160051b010190565b634e487b7160e01b600052603260045260246000fdfe608080604052600436101561001357600080fd5b60003560e01c9081630ae9dfad14611c5e575080630f46c9aa14611bcd5780630fb5a6b414611baf57806312065fe014611b8c57806316eebd1e14611b63578063200d2ed214611b39578063337f3f3214611aa857806335a063b414611a2b57806343aba9c21461199a578063522e1177146118b8578063697e4b871461163557806378c62420146116115780639753e432146115e8578063992d454d146115bf5780639c48b1021461152e5780639eb262f314611425578063a05220ad146113fc578063b63d1a00146109f6578063ba5fed341461092c578063bdd1daaa14610903578063c479bbf8146108df578063ea8a1af0146108ba578063f17171e91461087b578063f56679cf14610198578063fad844c11461016b5763fc0c546a1461013d57600080fd5b34610166576000366003190112610166576007546040516001600160a01b039091168152602090f35b600080fd5b346101665760003660031901126101665760015460405160089190911c6001600160a01b03168152602090f35b3461016657610100366003190112610166576101b2611db0565b602435906001600160a01b038216820361016657604435906001600160a01b03821682036101665760ff60643516606435036101665760ff60843516608435036101665760ff60a4351660a435036101665760c4356001600160401b03811161016657610223903690600401611d52565b906001600160401b0360e43511610166576102433660e435600401611d52565b9233600052600e60205261025e60ff60406000205416611edf565b61026b600d544210611fbf565b6001600160a01b0382161561082c576001600160a01b038516156107e8576001600160a01b038116156107a35760646102bb60ff60a435166102b660ff6084351660ff8535166121ab565b6121ab565b1161076357600194855460ff8116600681101561074d576106fc57610100600160a81b031916600893841b610100600160a81b0316178655600280546001600160a01b03199081166001600160a01b039384161790915560038054909116929091169190911781556006805460843560a81b60ff60a81b1662ffffff60a01b1990911660643560a01b60ff60a01b16171760a43560b01b60ff60b01b1617905582516001600160401b03811161062557806103768454611c7f565b94601f958681116106a9575b506020908683116001146106465760009261063b575b505060001982841b1c191690861b1782555b8351906001600160401b038211610625576009936103c88554611c7f565b958187116105dc575b839495965060209184116001146105755760009361056a575b505082861b92600019911b1c19161782555b60ff199083828154161784556040519360408552600091805461041e81611c7f565b9182604089015260609186858216918260001461054a575050600114610506575b5050508482036020860152600093805461045881611c7f565b808552948184169182156104d3575050600114610486575b60008051602061244683398151915286860387a1005b6000908152602081209094509192915b8285106104bb5750505001602001816000805160206124468339815191528480610470565b80546020868601810191909152909401938101610496565b9091508796506020949350600080516020612446833981519152979592501683830152151560051b010191928480610470565b9091929350600052602060002090836000925b84841061053357505050606091508501019085808061043f565b90816020925484868c010152019201918490610519565b925092505060609394501682870152151560051b8501019085808061043f565b0151915086806103ea565b9190879450601f198416928760005260206000209360005b8181106105c4575085116105aa575b50505050811b0182556103fc565b01519060f884600019921b161c191690558580808061059c565b8284015186558a97909501946020938401930161058d565b85600052602060002082850160051c8101976020861061061b575b830160051c019688905b88811061060f5750506103d1565b60008155018890610601565b90975087906105f7565b634e487b7160e01b600052604160045260246000fd5b015190508780610398565b90889350601f198316918660005260206000209260005b81811061069157508411610679575b505050811b0182556103aa565b015160001983861b60f8161c1916905587808061066c565b8284015185558b96909401936020938401930161065d565b9091508460005260206000208680850160051c820192602086106106f3575b918a91869594930160051c01915b8281106106e4575050610382565b600081558594508a91016106d6565b925081926106c8565b60405162461bcd60e51b815260206004820152602360248201527f457363726f77206e6f7420696e204c61756e636865642073746174757320737460448201526261746560e81b6064820152608490fd5b634e487b7160e01b600052602160045260246000fd5b60405162461bcd60e51b815260206004820152601860248201527750657263656e74616765206f7574206f6620626f756e647360401b6044820152606490fd5b60405162461bcd60e51b815260206004820152601f60248201527f496e76616c69642065786368616e6765206f7261636c652061646472657373006044820152606490fd5b606460405162461bcd60e51b815260206004820152602060248201527f496e76616c6964207265636f7264696e67206f7261636c6520616464726573736044820152fd5b60405162461bcd60e51b815260206004820152602160248201527f496e76616c69642072657075746174696f6e206f7261636c65206164647265736044820152607360f81b6064820152608490fd5b34610166576020366003190112610166576001600160a01b0361089c611db0565b16600052600e602052602060ff604060002054166040519015158152f35b346101665760003660031901126101665760206108d56120f5565b6040519015158152f35b3461016657600036600319011261016657602060ff60065460a01c16604051908152f35b34610166576000366003190112610166576006546040516001600160a01b039091168152602090f35b3461016657600036600319011261016657604051600a5460008261094f83611c7f565b91828252602093600190856001821691826000146109d6575050600114610996575b5061097e92500383611cd4565b610992604051928284938452830190611cf7565b0390f35b849150600a60005281600020906000915b8583106109be57505061097e935082010185610971565b805483890185015287945086939092019181016109a7565b60ff19168582015261097e95151560051b85010192508791506109719050565b346101665760a0366003190112610166576004356001600160401b03811161016657610a26903690600401611dc6565b6024356001600160401b038111610166573660238201121561016657806004013590610a5182611d99565b91610a5f6040519384611cd4565b8083526024602084019160051b8301019136831161016657602401905b8282106113ec57505060443590506001600160401b03811161016657610aa6903690600401611d52565b906064356001600160401b03811161016657610ac6903690600401611d52565b9133600052600e60205260ff6040600020541680156113d2575b610ae990611edf565b610afb610af4611e66565b1515612081565b60ff60015416600681101561074d57801561138d576003610b1d911415611f75565b610b2a600d544210611fbf565b610b326121e8565b8351825103611334578151156112f1576064845110156112b65760ff60015416600681101561074d57600481141590816112aa575b501561127457610b75611e66565b926000946000955b8451871015610c0557610b9087866120cb565b5115610bb557610bad600191610ba689886120cb565b519061220b565b960195610b7d565b60405162461bcd60e51b815260206004820152602260248201527f416d6f756e742073686f756c642062652067726561746572207468616e207a65604482015261726f60f01b6064820152608490fd5b84908690676765c793fa10079d601b1b81101561123957116111ff57610c2d84511515611ffe565b610c398351151561203f565b83516001600160401b03811161062557610c54600b54611c7f565b601f811161119e575b506020601f8211600114611133578192939495600092611128575b50508160011b916000199060031b1c191617600b555b82516001600160401b03811161062557610ca9600c54611c7f565b601f81116110c3575b506020601f8211600114611058578192939460009261104d575b50508160011b916000199060031b1c191617600c55905b8151610d07610cf182611d99565b91610cff6040519384611cd4565b808352611d99565b601f190136602083013760065460009384919082805b8251811015610ea857610d3081846120cb565b5190610d438260ff60a088901c16612330565b92604051610d5081611cb9565b601a8152602001600080516020612426833981519152905260648404610d759161220b565b92610d8082866120cb565b518660a81c60ff1690610d9291612330565b99604051610d9f81611cb9565b601a8152602001600080516020612426833981519152905260648b04610dc49161220b565b9960649004906064900490610dd89161220b565b610de282866120cb565b518660b01c60ff1690610df491612330565b604051610e0081611cb9565b601a81526020016000805160206124268339815191529052606490049687610e279161220b565b96610e319161220b565b604051610e3d81611cb9565b601e81527f536166654d6174683a207375627472616374696f6e206f766572666c6f7700006020820152610e7490848311156121b8565b8281810311610e925760019203610e8b82896120cb565b5201610d1d565b634e487b7160e01b600052601160045260246000fd5b858288878b60005b8351811015610efd5780610ec6600192886120cb565b51610ed2575b01610eb0565b610ef8828060a01b03610ee583886120cb565b5116610ef1838a6120cb565b5190612263565b610ecc565b5084938061102e575b5080611012575b5080610ff6575b50610f1d611e66565b610fe457600360ff19600154161760015560005b604051916060830160608452815180915260206080850192019060005b818110610fc55750505082810360208401526020808551928381520194019060005b818110610faf5783151560408601526084357f776950576f5bac7433f5095f1490841528a48d38607deca7d6f270988ec32b8a86880387a26001600055005b8251865260209586019590920191600101610f70565b82516001600160a01b0316845260209384019390920191600101610f4e565b6001805460ff19166002178155610f31565b60035461100c91906001600160a01b0316612263565b82610f14565b60025461102891906001600160a01b0316612263565b83610f0d565b600154611047919060081c6001600160a01b0316612263565b84610f06565b015190508480610ccc565b600c60005260206000209060005b601f19841681106110ab5750600193949583601f19811610611092575b505050811b01600c5590610ce3565b015160001960f88460031b161c19169055848080611083565b9091602060018192858a015181550193019101611066565b600c6000527fdf6966c971051c3d54ec59162606531493a51404a002842f56009d7e5cf4a8c7601f830160051c8101916020841061111e575b601f0160051c01905b8181106111125750610cb2565b60008155600101611105565b90915081906110fc565b015190508580610c78565b600b60005260206000209060005b601f1984168110611186575060019394959683601f1981161061116d575b505050811b01600b55610c8e565b015160001960f88460031b161c1916905585808061115f565b9091602060018192858b015181550193019101611141565b600b6000527f0175b7a638427703f0dbe7bb9bbf987a2551717b34e79f33b5b1008d1fa01db9601f830160051c8101602084106111f8575b601f830160051c820181106111ec575050610c5d565b600081556001016111d6565b50806111d6565b60405162461bcd60e51b81526020600482015260126024820152714e6f7420656e6f7567682062616c616e636560701b6044820152606490fd5b60405162461bcd60e51b8152602060048201526013602482015272084ead8d640ecc2d8eaca40e8dede40d0d2ced606b1b6044820152606490fd5b60405162461bcd60e51b815260206004820152600e60248201526d496e76616c69642073746174757360901b6044820152606490fd5b60059150141585610b67565b60405162461bcd60e51b8152602060048201526013602482015272546f6f206d616e7920726563697069656e747360681b6044820152606490fd5b60405162461bcd60e51b815260206004820152601b60248201527a416d6f756e74732073686f756c64206e6f7420626520656d70747960281b6044820152606490fd5b60405162461bcd60e51b815260206004820152602b60248201527f416d6f756e74206f6620726563697069656e747320616e642076616c7565732060448201526a0c8dedc4ee840dac2e8c6d60ab1b6064820152608490fd5b60405162461bcd60e51b815260206004820152601f60248201527f457363726f7720696e204c61756e6368656420737461747573207374617465006044820152606490fd5b506001543360089190911c6001600160a01b031614610ae0565b8135815260209182019101610a7c565b34610166576000366003190112610166576003546040516001600160a01b039091168152602090f35b3461016657602080600319360112610166576004356001600160401b03811161016657611456903690600401611dc6565b9033600052600e91600e60205261147460ff60406000205416611edf565b60005b815181101561152c576001907fad3769ac0c1a91ee9dcf369f6d2989f91572b6f876933bbc82ab85f6b969a07a846001600160a01b036114f1816114bb86896120cb565b51161515604051906114cc82611cb9565b6014825273457363726f773a207a65726f206164647265737360601b858301526121b8565b806114fc85886120cb565b511660005287825260406000208560ff1982541617905561151d84876120cb565b5116604051908152a101611477565b005b346101665760003660031901126101665760405160085460008261155183611c7f565b91828252602093600190856001821691826000146109d657505060011461157f575061097e92500383611cd4565b849150600860005281600020906000915b8583106115a757505061097e935082010185610971565b80548389018501528794508693909201918101611590565b34610166576000366003190112610166576005546040516001600160a01b039091168152602090f35b34610166576000366003190112610166576002546040516001600160a01b039091168152602090f35b3461016657600036600319011261016657602060ff60065460a81c16604051908152f35b34610166576040366003190112610166576001600160401b0360043581811161016657611666903690600401611d52565b6024358281116101665761167e903690600401611d52565b33600052602090600e825260ff6040600020541680156118a4575b6116a290611edf565b6116af600d544210611fbf565b600160ff815416600681101561074d57818114908115611899575b501561183e576116dc84511515611ffe565b6116e88251151561203f565b8351948511610625576116fc600a54611c7f565b601f81116117f4575b5082601f861160011461177a579185806000805160206124068339815191529761175d97969461176a9660009361176f575b501b916000199060031b1c191617600a555b604051948594604086526040860190611cf7565b9184830390850152611cf7565b0390a1005b88015192508a611737565b601f19861690600a600052846000209160005b8181106117df57509661176a949261175d97969492826000805160206124068339815191529a106117c6575b5050811b01600a55611749565b87015160001960f88460031b161c1916905588806117b9565b8783015184559284019291860191860161178d565b600a60005283600020601f870160051c810191858810611834575b601f0160051c019082905b828110611828575050611705565b6000815501829061181a565b909150819061180f565b60405162461bcd60e51b815260048101849052602d60248201527f457363726f77206e6f7420696e2050656e64696e67206f72205061727469616c60448201526c2073746174757320737461746560981b6064820152608490fd5b6002915014866116ca565b506002546001600160a01b03163314611699565b34610166576000366003190112610166576118d6600d544210611fbf565b33600052600e60205260ff604060002054168015611980575b6118f890611edf565b60015460ff8116600681101561074d576003036119405760ff19166004176001557fe06452d00b2b58f14a1fa6d499ea982ff93ea827ae700ea9ba03f4daddc94bc1600080a1005b60405162461bcd60e51b8152602060048201526018602482015277457363726f77206e6f7420696e205061696420737461746560401b6044820152606490fd5b506001543360089190911c6001600160a01b0316146118ef565b3461016657600036600319011261016657604051600b546000826119bd83611c7f565b91828252602093600190856001821691826000146109d65750506001146119eb575061097e92500383611cd4565b849150600b60005281600020906000915b858310611a1357505061097e935082010185610971565b805483890185015287945086939092019181016119fc565b346101665760003660031901126101665733600052600e602052611a5660ff60406000205416611edf565b60ff60015416600681101561074d57600381611a786004611a7f941415611f29565b1415611f75565b611a87611e66565b611a9a575b6005546001600160a01b0316ff5b611aa26120f5565b50611a8c565b3461016657600036600319011261016657604051600954600082611acb83611c7f565b91828252602093600190856001821691826000146109d6575050600114611af9575061097e92500383611cd4565b849150600960005281600020906000915b858310611b2157505061097e935082010185610971565b80548389018501528794508693909201918101611b0a565b346101665760003660031901126101665760ff60015416604051600682101561074d576020918152f35b34610166576000366003190112610166576004546040516001600160a01b039091168152602090f35b34610166576000366003190112610166576020611ba7611e66565b604051908152f35b34610166576000366003190112610166576020600d54604051908152f35b3461016657600036600319011261016657604051600c54600082611bf083611c7f565b91828252602093600190856001821691826000146109d6575050600114611c1e575061097e92500383611cd4565b849150600c60005281600020906000915b858310611c4657505061097e935082010185610971565b80548389018501528794508693909201918101611c2f565b346101665760003660031901126101665760209060ff60065460b01c168152f35b90600182811c92168015611caf575b6020831014611c9957565b634e487b7160e01b600052602260045260246000fd5b91607f1691611c8e565b604081019081106001600160401b0382111761062557604052565b601f909101601f19168101906001600160401b0382119082101761062557604052565b919082519283825260005b848110611d23575050826000602080949584010152601f8019910116010190565b602081830181015184830182015201611d02565b6001600160401b03811161062557601f01601f191660200190565b81601f8201121561016657803590611d6982611d37565b92611d776040519485611cd4565b8284526020838301011161016657816000926020809301838601378301015290565b6001600160401b0381116106255760051b60200190565b600435906001600160a01b038216820361016657565b9080601f83011215610166576020908235611de081611d99565b93611dee6040519586611cd4565b81855260208086019260051b82010192831161016657602001905b828210611e17575050505090565b81356001600160a01b0381168103610166578152908301908301611e09565b3d15611e61573d90611e4782611d37565b91611e556040519384611cd4565b82523d6000602084013e565b606090565b6007546040516370a0823160e01b60208201908152306024808401919091528252909160608301916001600160a01b03909116908383106001600160401b0384111761062557600093849360405251915afa611ec0611e36565b90611ecb5750600090565b602081805181010312610166576020015190565b15611ee657565b60405162461bcd60e51b815260206004820152601b60248201527a1059191c995cdcc818d85b1b1a5b99c81b9bdd081d1c9d5cdd1959602a1b6044820152606490fd5b15611f3057565b60405162461bcd60e51b815260206004820152601f60248201527f457363726f7720696e20436f6d706c65746520737461747573207374617465006044820152606490fd5b15611f7c57565b60405162461bcd60e51b815260206004820152601b60248201527a457363726f7720696e20506169642073746174757320737461746560281b6044820152606490fd5b15611fc657565b60405162461bcd60e51b815260206004820152601060248201526f10dbdb9d1c9858dd08195e1c1a5c995960821b6044820152606490fd5b1561200557565b60405162461bcd60e51b815260206004820152601260248201527155524c2063616e277420626520656d70747960701b6044820152606490fd5b1561204657565b60405162461bcd60e51b8152602060048201526013602482015272486173682063616e277420626520656d70747960681b6044820152606490fd5b1561208857565b60405162461bcd60e51b815260206004820152601b60248201527a546f6b656e20636f6e7472616374206f7574206f662066756e647360281b6044820152606490fd5b80518210156120df5760209160051b010190565b634e487b7160e01b600052603260045260246000fd5b6000338152600e60205261210f60ff604083205416611edf565b61211a610af4611e66565b60ff600154166006811015612197579061213f600383611a7860046001961415611f29565b6121476121e8565b612162828060a01b036005541661215c611e66565b90612263565b815460ff191660051782557f63b958841f79ab97cb5456da181454b9932c0e15a3b17f1cbd27e2a8bc6104378180a155600190565b634e487b7160e01b82526021600452602482fd5b91908201809211610e9257565b156121c05750565b60405162461bcd60e51b8152602060048201529081906121e4906024830190611cf7565b0390fd5b6002600054146121f9576002600055565b604051633ee5aeb560e01b8152600490fd5b9061221690826121ab565b9081106122205790565b60405162461bcd60e51b815260206004820152601b60248201527a536166654d6174683a206164646974696f6e206f766572666c6f7760281b6044820152606490fd5b60075460405163a9059cbb60e01b602082019081526001600160a01b0393841660248301526044808301959095529381529116919060808101906001600160401b03821181831017610625576122d191604052600080938192519082875af16122ca611e36565b90846123a2565b908151918215159283612301575b5050506122e95750565b60249060405190635274afe760e01b82526004820152fd5b81929350906020918101031261232c57602001519081159182150361232957503880806122df565b80fd5b5080fd5b90811561239b57808202918204808203610e92570361234c5790565b60405162461bcd60e51b815260206004820152602160248201527f536166654d6174683a206d756c7469706c69636174696f6e206f766572666c6f6044820152607760f81b6064820152608490fd5b5050600090565b906123c957508051156123b757805190602001fd5b604051630a12f52160e11b8152600490fd5b815115806123fc575b6123da575090565b604051639996b31560e01b81526001600160a01b039091166004820152602490fd5b50803b156123d256feb20e0717219840fd5684a80bec782e8babb56ea224f677561b791a61192605c1536166654d6174683a206469766973696f6e206279207a65726f0000000000008ec464ac0c8e44e17130cd1ffb09967fa6f2c33339289678a59ea0112cfc2aa9a2646970667358221220569e40969b2c6c6793846c387f9a0d228d0cd520160d362765554a13fc97657464736f6c634300081700334910fdfa16fed3260ed0e7147f7cc6da11a60208b5b9406d12a635614ffd914346756e6374696f6e206d7573742062652063616c6c6564207468726f75676820360894a13ba1a3210667c828492db98dca3e2076cc3735a920a3ca505d382bbc8be0079c531659141344cd1fd0a4f28419497f9722a3daafe3b4186f6b6457e0bc7cd75a20ee27fd9adebab32041f755214dbc6bffa90cc0225b39da2e5c2d3b45524331393637557067726164653a20756e737570706f727465642070726f78416464726573733a206c6f772d6c6576656c2064656c65676174652063616c6c45524331393637557067726164653a206e657720696d706c656d656e74617469a264697066735822122078e299745ccb31516c4e75b0a3c7313c05bbd085866301942890bec05224aba864736f6c63430008170033",
  "linkReferences": {},
  "deployedLinkReferences": {}
}