{
  "_format": "hh-sol-artifact-1",
  "contractName": "RewardPool",
  "sourceName": "contracts/RewardPool.sol",
  "abi": [
    {
      "inputs": [],
      "stateMutability": "nonpayable",
      "type": "constructor"
    },
    {
      "anonymous": false,
      "inputs": [
        {
          "indexed": false,
          "internalType": "address",
          "name": "previousAdmin",
          "type": "address"
        },
        {
          "indexed": false,
          "internalType": "address",
          "name": "newAdmin",
          "type": "address"
        }
      ],
      "name": "AdminChanged",
      "type": "event"
    },
    {
      "anonymous": false,
      "inputs": [
        {
          "indexed": true,
          "internalType": "address",
          "name": "beacon",
          "type": "address"
        }
      ],
      "name": "BeaconUpgraded",
      "type": "event"
    },
    {
      "anonymous": false,
      "inputs": [
        {
          "indexed": false,
          "internalType": "uint8",
          "name": "version",
          "type": "uint8"
        }
      ],
      "name": "Initialized",
      "type": "event"
    },
    {
      "anonymous": false,
      "inputs": [
        {
          "indexed": true,
          "internalType": "address",
          "name": "previousOwner",
          "type": "address"
        },
        {
          "indexed": true,
          "internalType": "address",
          "name": "newOwner",
          "type": "address"
        }
      ],
      "name": "OwnershipTransferred",
      "type": "event"
    },
    {
      "anonymous": false,
      "inputs": [
        {
          "indexed": true,
          "internalType": "address",
          "name": "escrowAddress",
          "type": "address"
        },
        {
          "indexed": true,
          "internalType": "address",
          "name": "staker",
          "type": "address"
        },
        {
          "indexed": true,
          "internalType": "address",
          "name": "slasher",
          "type": "address"
        },
        {
          "indexed": false,
          "internalType": "uint256",
          "name": "tokens",
          "type": "uint256"
        }
      ],
      "name": "RewardAdded",
      "type": "event"
    },
    {
      "anonymous": false,
      "inputs": [
        {
          "indexed": true,
          "internalType": "address",
          "name": "implementation",
          "type": "address"
        }
      ],
      "name": "Upgraded",
      "type": "event"
    },
    {
      "inputs": [
        {
          "internalType": "address",
          "name": "_escrowAddress",
          "type": "address"
        },
        {
          "internalType": "address",
          "name": "_staker",
          "type": "address"
        },
        {
          "internalType": "address",
          "name": "_slasher",
          "type": "address"
        },
        {
          "internalType": "uint256",
          "name": "_tokens",
          "type": "uint256"
        }
      ],
      "name": "addReward",
      "outputs": [],
      "stateMutability": "nonpayable",
      "type": "function"
    },
    {
      "inputs": [
        {
          "internalType": "address",
          "name": "_escrowAddress",
          "type": "address"
        }
      ],
      "name": "distributeReward",
      "outputs": [],
      "stateMutability": "nonpayable",
      "type": "function"
    },
    {
      "inputs": [],
      "name": "fees",
      "outputs": [
        {
          "internalType": "uint256",
          "name": "",
          "type": "uint256"
        }
      ],
      "stateMutability": "view",
      "type": "function"
    },
    {
      "inputs": [
        {
          "internalType": "address",
          "name": "_escrowAddress",
          "type": "address"
        }
      ],
      "name": "getRewards",
      "outputs": [
        {
          "components": [
            {
              "internalType": "address",
              "name": "escrowAddress",
              "type": "address"
            },
            {
              "internalType": "address",
              "name": "slasher",
              "type": "address"
            },
            {
              "internalType": "uint256",
              "name": "tokens",
              "type": "uint256"
            }
          ],
          "internalType": "struct IRewardPool.Reward[]",
          "name": "",
          "type": "tuple[]"
        }
      ],
      "stateMutability": "view",
      "type": "function"
    },
    {
      "inputs": [
        {
          "internalType": "address",
          "name": "_token",
          "type": "address"
        },
        {
          "internalType": "address",
          "name": "_staking",
          "type": "address"
        },
        {
          "internalType": "uint256",
          "name": "_fees",
          "type": "uint256"
        }
      ],
      "name": "initialize",
      "outputs": [],
      "stateMutability": "payable",
      "type": "function"
    },
    {
      "inputs": [],
      "name": "owner",
      "outputs": [
        {
          "internalType": "address",
          "name": "",
          "type": "address"
        }
      ],
      "stateMutability": "view",
      "type": "function"
    },
    {
      "inputs": [],
      "name": "proxiableUUID",
      "outputs": [
        {
          "internalType": "bytes32",
          "name": "",
          "type": "bytes32"
        }
      ],
      "stateMutability": "view",
      "type": "function"
    },
    {
      "inputs": [],
      "name": "renounceOwnership",
      "outputs": [],
      "stateMutability": "nonpayable",
      "type": "function"
    },
    {
      "inputs": [
        {
          "internalType": "address",
          "name": "",
          "type": "address"
        },
        {
          "internalType": "uint256",
          "name": "",
          "type": "uint256"
        }
      ],
      "name": "rewards",
      "outputs": [
        {
          "internalType": "address",
          "name": "escrowAddress",
          "type": "address"
        },
        {
          "internalType": "address",
          "name": "slasher",
          "type": "address"
        },
        {
          "internalType": "uint256",
          "name": "tokens",
          "type": "uint256"
        }
      ],
      "stateMutability": "view",
      "type": "function"
    },
    {
      "inputs": [],
      "name": "staking",
      "outputs": [
        {
          "internalType": "address",
          "name": "",
          "type": "address"
        }
      ],
      "stateMutability": "view",
      "type": "function"
    },
    {
      "inputs": [],
      "name": "token",
      "outputs": [
        {
          "internalType": "address",
          "name": "",
          "type": "address"
        }
      ],
      "stateMutability": "view",
      "type": "function"
    },
    {
      "inputs": [],
      "name": "totalFee",
      "outputs": [
        {
          "internalType": "uint256",
          "name": "",
          "type": "uint256"
        }
      ],
      "stateMutability": "view",
      "type": "function"
    },
    {
      "inputs": [
        {
          "internalType": "address",
          "name": "newOwner",
          "type": "address"
        }
      ],
      "name": "transferOwnership",
      "outputs": [],
      "stateMutability": "nonpayable",
      "type": "function"
    },
    {
      "inputs": [
        {
          "internalType": "address",
          "name": "newImplementation",
          "type": "address"
        }
      ],
      "name": "upgradeTo",
      "outputs": [],
      "stateMutability": "nonpayable",
      "type": "function"
    },
    {
      "inputs": [
        {
          "internalType": "address",
          "name": "newImplementation",
          "type": "address"
        },
        {
          "internalType": "bytes",
          "name": "data",
          "type": "bytes"
        }
      ],
      "name": "upgradeToAndCall",
      "outputs": [],
      "stateMutability": "payable",
      "type": "function"
    },
    {
      "inputs": [
        {
          "internalType": "address",
          "name": "to",
          "type": "address"
        }
      ],
      "name": "withdraw",
      "outputs": [],
      "stateMutability": "nonpayable",
      "type": "function"
    }
  ],
  "bytecode": "0x60a080604052346100dc57306080526000549060ff8260081c1661008a575060ff8082160361004f575b60405161148490816100e28239608051818181610464015281816105b901526108340152f35b60ff90811916176000557f7f26b83ff96e1f2b6a682f133852f6798a09c465da95921460cefb3847402498602060405160ff8152a138610029565b62461bcd60e51b815260206004820152602760248201527f496e697469616c697a61626c653a20636f6e747261637420697320696e697469604482015266616c697a696e6760c81b6064820152608490fd5b600080fdfe608060408181526004918236101561001657600080fd5b600092833560e01c918263092193ab14610b69575081631794bb3c146109ec5781631df4ccfc146109cd5781633659cfe61461080c5781634cf088d9146107e35781634f1ef2861461053e57816351cff8d91461050c57816352d1902d1461044e578163715018a61461040357816379ee54f7146102eb5781638da5cb5b146102c25781639af1d35a146102a3578163b933ceac14610231578163e2ff99ef14610196578163f2fde38b14610100575063fc0c546a146100d557600080fd5b346100fc57816003193601126100fc5760c95490516001600160a01b039091168152602090f35b5080fd5b9050346101925760203660031901126101925761011b610d1c565b9161012461116b565b6001600160a01b03831615610140578361013d846111c3565b80f35b906020608492519162461bcd60e51b8352820152602660248201527f4f776e61626c653a206e6577206f776e657220697320746865207a65726f206160448201526564647265737360d01b6064820152fd5b8280fd5b839150346100fc5760803660031901126100fc576101b2610d1c565b906101bb610d37565b604435916001600160a01b03808416840361022d5760ca541633036101ea575061013d93945060643592610eaf565b606490602087519162461bcd60e51b8352820152601e60248201527f43616c6c6572206973206e6f74207374616b696e6720636f6e747261637400006044820152fd5b8580fd5b5050346100fc57806003193601126100fc5761024b610d1c565b6001600160a01b03908116835260cc602052818320805460243594929392908510156102a0575060609361027e91610dbc565b5090600283835416936001840154169201549181519384526020840152820152f35b80fd5b5050346100fc57816003193601126100fc5760209060cb549051908152f35b5050346100fc57816003193601126100fc5760335490516001600160a01b039091168152602090f35b8284346102a057602092836003193601126100fc576001600160a01b039384610312610d1c565b16835260cc81528383208054909390926001600160401b0384116103f057509190845191610345828260051b0184610d7e565b8083528183018095855282852085915b8383106103b0575050505084519481860192828752518093528086019493905b8382106103825786860387f35b8451805189168752808401518916878501528101518682015260609095019493820193600190910190610375565b6003856001928b99979899516103c581610d4d565b8d86541681528d85870154168382015260028601548d82015281520192019201919095949395610355565b634e487b7160e01b825260419052602490fd5b83346102a057806003193601126102a05761041c61116b565b603380546001600160a01b0319811690915581906001600160a01b03166000805160206113ef8339815191528280a380f35b905082346102a057806003193601126102a057507f00000000000000000000000000000000000000000000000000000000000000006001600160a01b031630036104a957602082516000805160206113cf8339815191528152f35b6020608492519162461bcd60e51b8352820152603860248201527f555550535570677261646561626c653a206d757374206e6f742062652063616c6044820152771b1959081d1a1c9bdd59da0819195b1959d85d1958d85b1b60421b6064820152fd5b83346102a05760203660031901126102a05761013d610529610d1c565b61053161116b565b60cd54908360cd55610fd4565b9180915060031936011261019257610554610d1c565b90602435906001600160401b0382116107df57366023830112156107df578184013561057f81610da1565b9061058c83519283610d7e565b80825286602094858401923660248284010111610192578060248893018537840101526001600160a01b037f00000000000000000000000000000000000000000000000000000000000000008116906105e730831415610e11565b6106046000805160206113cf833981519152928284541614610e60565b61060c61116b565b60008051602061138f8339815191525460ff16156106345750505050505061013d91506111fa565b8693949596169085516352d1902d60e01b815287818a81865afa8a91816107ac575b506106a357865162461bcd60e51b8152808a01899052602e602482015260008051602061142f83398151915260448201526d6f6e206973206e6f74205555505360901b6064820152608490fd5b97919293959497036107575750908692916106bd856111fa565b60008051602061140f8339815191528480a285511580159061074f575b6106e8575b50505050505080f35b61074395660819985a5b195960ca1b837f416464726573733a206c6f772d6c6576656c2064656c65676174652063616c6c869551986107268a610d4d565b60278a528901528701525190845af461073d61128a565b916112ba565b503880808381806106df565b5060016106da565b835162461bcd60e51b8152908101869052602960248201527f45524331393637557067726164653a20756e737570706f727465642070726f786044820152681a58589b195555525160ba1b6064820152608490fd5b9091508881813d83116107d8575b6107c48183610d7e565b810103126107d457519038610656565b8a80fd5b503d6107ba565b8480fd5b5050346100fc57816003193601126100fc5760ca5490516001600160a01b039091168152602090f35b91905034610192576020806003193601126109c957610829610d1c565b916001600160a01b037f000000000000000000000000000000000000000000000000000000000000000081169061086230831415610e11565b61087f6000805160206113cf833981519152928284541614610e60565b61088761116b565b825191848301916001600160401b038311848410176109b65782855288845260008051602061138f8339815191525460ff16156108ce5750505050505061013d91506111fa565b8693949596169085516352d1902d60e01b815287818a81865afa8a9181610987575b5061093d57865162461bcd60e51b8152808a01899052602e602482015260008051602061142f83398151915260448201526d6f6e206973206e6f74205555505360901b6064820152608490fd5b9791929395949703610757575090869291610957856111fa565b60008051602061140f8339815191528480a2855115801590610980576106e85750505050505080f35b50826106da565b9091508881813d83116109af575b61099f8183610d7e565b810103126107d4575190386108f0565b503d610995565b634e487b7160e01b895260418852602489fd5b8380fd5b5050346100fc57816003193601126100fc5760209060cd549051908152f35b9050606036600319011261019257610a02610d1c565b90610a0b610d37565b91845460ff8160081c161592838094610b5c575b8015610b45575b15610aeb575060ff198116600117865582610ada575b50610a4d60ff865460081c1661110b565b610a56336111c3565b845492610a6860ff8560081c1661110b565b60c980546001600160a01b039384166001600160a01b03199182161790915560ca805492909316911617905560443560cb55610aa2578280f35b61ff001916825551600181527f7f26b83ff96e1f2b6a682f133852f6798a09c465da95921460cefb384740249890602090a138808280f35b61ffff191661010117855538610a3c565b608490602087519162461bcd60e51b8352820152602e60248201527f496e697469616c697a61626c653a20636f6e747261637420697320616c72656160448201526d191e481a5b9a5d1a585b1a5e995960921b6064820152fd5b50303b158015610a265750600160ff831614610a26565b50600160ff831610610a1f565b8482853461019257602090816003193601126109c9576001600160a01b0380610b90610d1c565b1680865260cc84528286208054909791906001600160401b038111610d0957600598610bc1878360051b0185610d7e565b81845288528588208890878086015b848410610ccf575050505050815115610c9457865260cc8452828620805487825580610c42575b5050855b8151811015610c3e57610c1f85828a1b840101518585888301511691015190610fd4565b6001810180911115610bfb57634e487b7160e01b875260118652602487fd5b8680f35b60039181600302916003830403610c81578852858820908101905b818110610c6a5750610bf7565b808984925589600182015589600282015501610c5d565b634e487b7160e01b895260118852602489fd5b835162461bcd60e51b815280870186905260156024820152744e6f207265776172647320666f7220657363726f7760581b6044820152606490fd5b6001916003918a51610ce081610d4d565b8a86541681528a85870154168382015260028601548c8201528152019201920191908890610bd0565b634e487b7160e01b885260418752602488fd5b600435906001600160a01b0382168203610d3257565b600080fd5b602435906001600160a01b0382168203610d3257565b606081019081106001600160401b03821117610d6857604052565b634e487b7160e01b600052604160045260246000fd5b601f909101601f19168101906001600160401b03821190821017610d6857604052565b6001600160401b038111610d6857601f01601f191660200190565b8054821015610dd8576000526003602060002091020190600090565b634e487b7160e01b600052603260045260246000fd5b91908201809211610dfb57565b634e487b7160e01b600052601160045260246000fd5b15610e1857565b60405162461bcd60e51b815260206004820152602c60248201526000805160206113af83398151915260448201526b19195b1959d85d1958d85b1b60a21b6064820152608490fd5b15610e6757565b60405162461bcd60e51b815260206004820152602c60248201526000805160206113af83398151915260448201526b6163746976652070726f787960a01b6064820152608490fd5b92919260cb54808410610fbf57808403938411610dfb57610ed29060cd54610dee565b60cd5560405191610ee283610d4d565b60018060a01b03809216928381528260208201961695868152604082019086825260009286845260cc60205260408420805490600160401b821015610fab5790610f3191600182018155610dbc565b949094610f9757505183549086166001600160a01b03199182161784559051600184018054918716919092161790555160029091015560405193845216917f79cb25c3c609d10efc8ab481d1c4dd17e3f2e8a5674138ae104ca4685f40903490602090a4565b634e487b7160e01b81526004819052602490fd5b634e487b7160e01b86526041600452602486fd5b505050610fcf915060cd54610dee565b60cd55565b60c95460405163a9059cbb60e01b602082019081526001600160a01b0393841660248301526044808301959095529381526001600160401b03926080820192169083831181841017610d685760c0810193841183851017610d685761107493604052602083527f5361666545524332303a206c6f772d6c6576656c2063616c6c206661696c656460a0820152600080958192519082855af161073d61128a565b9081519182159283156110e4575b5050501561108c57565b60405162461bcd60e51b815260206004820152602a60248201527f5361666545524332303a204552433230206f7065726174696f6e20646964206e6044820152691bdd081cdd58d8d9595960b21b6064820152608490fd5b8192935090602091810103126100fc57602001519081151582036102a05750388080611082565b1561111257565b60405162461bcd60e51b815260206004820152602b60248201527f496e697469616c697a61626c653a20636f6e7472616374206973206e6f74206960448201526a6e697469616c697a696e6760a81b6064820152608490fd5b6033546001600160a01b0316330361117f57565b606460405162461bcd60e51b815260206004820152602060248201527f4f776e61626c653a2063616c6c6572206973206e6f7420746865206f776e65726044820152fd5b603380546001600160a01b039283166001600160a01b0319821681179092559091166000805160206113ef833981519152600080a3565b803b1561122f576000805160206113cf83398151915280546001600160a01b0319166001600160a01b03909216919091179055565b60405162461bcd60e51b815260206004820152602d60248201527f455243313936373a206e657720696d706c656d656e746174696f6e206973206e60448201526c1bdd08184818dbdb9d1c9858dd609a1b6064820152608490fd5b3d156112b5573d9061129b82610da1565b916112a96040519384610d7e565b82523d6000602084013e565b606090565b9192901561131c57508151156112ce575090565b3b156112d75790565b60405162461bcd60e51b815260206004820152601d60248201527f416464726573733a2063616c6c20746f206e6f6e2d636f6e74726163740000006044820152606490fd5b82519091501561132f5750805190602001fd5b6040519062461bcd60e51b82528160208060048301528251908160248401526000935b828510611375575050604492506000838284010152601f80199101168101030190fd5b848101820151868601604401529381019385935061135256fe4910fdfa16fed3260ed0e7147f7cc6da11a60208b5b9406d12a635614ffd914346756e6374696f6e206d7573742062652063616c6c6564207468726f75676820360894a13ba1a3210667c828492db98dca3e2076cc3735a920a3ca505d382bbc8be0079c531659141344cd1fd0a4f28419497f9722a3daafe3b4186f6b6457e0bc7cd75a20ee27fd9adebab32041f755214dbc6bffa90cc0225b39da2e5c2d3b45524331393637557067726164653a206e657720696d706c656d656e74617469a2646970667358221220674f412282441a62e8f9aec815db0a201d89053752cb78dc16d57c92bb2c6eda64736f6c63430008170033",
  "linkReferences": {},
  "deployedLinkReferences": {}
}