{
  "_format": "hh-sol-artifact-1",
  "contractName": "Staking",
  "sourceName": "contracts/Staking.sol",
  "abi": [
    {
      "inputs": [],
      "stateMutability": "nonpayable",
      "type": "constructor"
    },
    {
      "anonymous": false,
      "inputs": [
        {
          "indexed": false,
          "internalType": "address",
          "name": "previousAdmin",
          "type": "address"
        },
        {
          "indexed": false,
          "internalType": "address",
          "name": "newAdmin",
          "type": "address"
        }
      ],
      "name": "AdminChanged",
      "type": "event"
    },
    {
      "anonymous": false,
      "inputs": [
        {
          "indexed": true,
          "internalType": "address",
          "name": "staker",
          "type": "address"
        },
        {
          "indexed": false,
          "internalType": "uint256",
          "name": "tokens",
          "type": "uint256"
        },
        {
          "indexed": true,
          "internalType": "address",
          "name": "escrowAddress",
          "type": "address"
        },
        {
          "indexed": false,
          "internalType": "uint256",
          "name": "closedAt",
          "type": "uint256"
        }
      ],
      "name": "AllocationClosed",
      "type": "event"
    },
    {
      "anonymous": false,
      "inputs": [
        {
          "indexed": true,
          "internalType": "address",
          "name": "beacon",
          "type": "address"
        }
      ],
      "name": "BeaconUpgraded",
      "type": "event"
    },
    {
      "anonymous": false,
      "inputs": [
        {
          "indexed": false,
          "internalType": "uint8",
          "name": "version",
          "type": "uint8"
        }
      ],
      "name": "Initialized",
      "type": "event"
    },
    {
      "anonymous": false,
      "inputs": [
        {
          "indexed": true,
          "internalType": "address",
          "name": "previousOwner",
          "type": "address"
        },
        {
          "indexed": true,
          "internalType": "address",
          "name": "newOwner",
          "type": "address"
        }
      ],
      "name": "OwnershipTransferred",
      "type": "event"
    },
    {
      "anonymous": false,
      "inputs": [
        {
          "indexed": true,
          "internalType": "uint32",
          "name": "lockPeriod",
          "type": "uint32"
        }
      ],
      "name": "SetLockPeriod",
      "type": "event"
    },
    {
      "anonymous": false,
      "inputs": [
        {
          "indexed": true,
          "internalType": "uint256",
          "name": "minimumStake",
          "type": "uint256"
        }
      ],
      "name": "SetMinumumStake",
      "type": "event"
    },
    {
      "anonymous": false,
      "inputs": [
        {
          "indexed": true,
          "internalType": "address",
          "name": "rewardPool",
          "type": "address"
        }
      ],
      "name": "SetRewardPool",
      "type": "event"
    },
    {
      "anonymous": false,
      "inputs": [
        {
          "indexed": true,
          "internalType": "address",
          "name": "staker",
          "type": "address"
        },
        {
          "indexed": false,
          "internalType": "uint256",
          "name": "tokens",
          "type": "uint256"
        },
        {
          "indexed": true,
          "internalType": "address",
          "name": "escrowAddress",
          "type": "address"
        },
        {
          "indexed": false,
          "internalType": "uint256",
          "name": "createdAt",
          "type": "uint256"
        }
      ],
      "name": "StakeAllocated",
      "type": "event"
    },
    {
      "anonymous": false,
      "inputs": [
        {
          "indexed": true,
          "internalType": "address",
          "name": "staker",
          "type": "address"
        },
        {
          "indexed": false,
          "internalType": "uint256",
          "name": "tokens",
          "type": "uint256"
        }
      ],
      "name": "StakeDeposited",
      "type": "event"
    },
    {
      "anonymous": false,
      "inputs": [
        {
          "indexed": true,
          "internalType": "address",
          "name": "staker",
          "type": "address"
        },
        {
          "indexed": false,
          "internalType": "uint256",
          "name": "tokens",
          "type": "uint256"
        },
        {
          "indexed": false,
          "internalType": "uint256",
          "name": "until",
          "type": "uint256"
        }
      ],
      "name": "StakeLocked",
      "type": "event"
    },
    {
      "anonymous": false,
      "inputs": [
        {
          "indexed": true,
          "internalType": "address",
          "name": "staker",
          "type": "address"
        },
        {
          "indexed": false,
          "internalType": "uint256",
          "name": "tokens",
          "type": "uint256"
        },
        {
          "indexed": true,
          "internalType": "address",
          "name": "escrowAddress",
          "type": "address"
        },
        {
          "indexed": false,
          "internalType": "address",
          "name": "slasher",
          "type": "address"
        }
      ],
      "name": "StakeSlashed",
      "type": "event"
    },
    {
      "anonymous": false,
      "inputs": [
        {
          "indexed": true,
          "internalType": "address",
          "name": "staker",
          "type": "address"
        },
        {
          "indexed": false,
          "internalType": "uint256",
          "name": "tokens",
          "type": "uint256"
        }
      ],
      "name": "StakeWithdrawn",
      "type": "event"
    },
    {
      "anonymous": false,
      "inputs": [
        {
          "indexed": true,
          "internalType": "address",
          "name": "implementation",
          "type": "address"
        }
      ],
      "name": "Upgraded",
      "type": "event"
    },
    {
      "inputs": [
        {
          "internalType": "address",
          "name": "_escrowAddress",
          "type": "address"
        },
        {
          "internalType": "uint256",
          "name": "_tokens",
          "type": "uint256"
        }
      ],
      "name": "allocate",
      "outputs": [],
      "stateMutability": "nonpayable",
      "type": "function"
    },
    {
      "inputs": [
        {
          "internalType": "address",
          "name": "",
          "type": "address"
        }
      ],
      "name": "allocations",
      "outputs": [
        {
          "internalType": "address",
          "name": "escrowAddress",
          "type": "address"
        },
        {
          "internalType": "address",
          "name": "staker",
          "type": "address"
        },
        {
          "internalType": "uint256",
          "name": "tokens",
          "type": "uint256"
        },
        {
          "internalType": "uint256",
          "name": "createdAt",
          "type": "uint256"
        },
        {
          "internalType": "uint256",
          "name": "closedAt",
          "type": "uint256"
        }
      ],
      "stateMutability": "view",
      "type": "function"
    },
    {
      "inputs": [
        {
          "internalType": "address",
          "name": "_escrowAddress",
          "type": "address"
        }
      ],
      "name": "closeAllocation",
      "outputs": [],
      "stateMutability": "nonpayable",
      "type": "function"
    },
    {
      "inputs": [
        {
          "internalType": "address",
          "name": "_escrowAddress",
          "type": "address"
        }
      ],
      "name": "getAllocation",
      "outputs": [
        {
          "components": [
            {
              "internalType": "address",
              "name": "escrowAddress",
              "type": "address"
            },
            {
              "internalType": "address",
              "name": "staker",
              "type": "address"
            },
            {
              "internalType": "uint256",
              "name": "tokens",
              "type": "uint256"
            },
            {
              "internalType": "uint256",
              "name": "createdAt",
              "type": "uint256"
            },
            {
              "internalType": "uint256",
              "name": "closedAt",
              "type": "uint256"
            }
          ],
          "internalType": "struct IStaking.Allocation",
          "name": "",
          "type": "tuple"
        }
      ],
      "stateMutability": "view",
      "type": "function"
    },
    {
      "inputs": [
        {
          "internalType": "address",
          "name": "_escrowAddress",
          "type": "address"
        }
      ],
      "name": "getAllocationState",
      "outputs": [
        {
          "internalType": "enum IStaking.AllocationState",
          "name": "",
          "type": "uint8"
        }
      ],
      "stateMutability": "view",
      "type": "function"
    },
    {
      "inputs": [],
      "name": "getListOfStakers",
      "outputs": [
        {
          "internalType": "address[]",
          "name": "",
          "type": "address[]"
        },
        {
          "components": [
            {
              "internalType": "uint256",
              "name": "tokensStaked",
              "type": "uint256"
            },
            {
              "internalType": "uint256",
              "name": "tokensAllocated",
              "type": "uint256"
            },
            {
              "internalType": "uint256",
              "name": "tokensLocked",
              "type": "uint256"
            },
            {
              "internalType": "uint256",
              "name": "tokensLockedUntil",
              "type": "uint256"
            }
          ],
          "internalType": "struct Stakes.Staker[]",
          "name": "",
          "type": "tuple[]"
        }
      ],
      "stateMutability": "view",
      "type": "function"
    },
    {
      "inputs": [
        {
          "internalType": "address",
          "name": "_staker",
          "type": "address"
        }
      ],
      "name": "getStakedTokens",
      "outputs": [
        {
          "internalType": "uint256",
          "name": "",
          "type": "uint256"
        }
      ],
      "stateMutability": "view",
      "type": "function"
    },
    {
      "inputs": [
        {
          "internalType": "address",
          "name": "_staker",
          "type": "address"
        }
      ],
      "name": "getStaker",
      "outputs": [
        {
          "components": [
            {
              "internalType": "uint256",
              "name": "tokensStaked",
              "type": "uint256"
            },
            {
              "internalType": "uint256",
              "name": "tokensAllocated",
              "type": "uint256"
            },
            {
              "internalType": "uint256",
              "name": "tokensLocked",
              "type": "uint256"
            },
            {
              "internalType": "uint256",
              "name": "tokensLockedUntil",
              "type": "uint256"
            }
          ],
          "internalType": "struct Stakes.Staker",
          "name": "",
          "type": "tuple"
        }
      ],
      "stateMutability": "view",
      "type": "function"
    },
    {
      "inputs": [
        {
          "internalType": "address",
          "name": "_staker",
          "type": "address"
        }
      ],
      "name": "hasAvailableStake",
      "outputs": [
        {
          "internalType": "bool",
          "name": "",
          "type": "bool"
        }
      ],
      "stateMutability": "view",
      "type": "function"
    },
    {
      "inputs": [
        {
          "internalType": "address",
          "name": "_staker",
          "type": "address"
        }
      ],
      "name": "hasStake",
      "outputs": [
        {
          "internalType": "bool",
          "name": "",
          "type": "bool"
        }
      ],
      "stateMutability": "view",
      "type": "function"
    },
    {
      "inputs": [
        {
          "internalType": "address",
          "name": "_token",
          "type": "address"
        },
        {
          "internalType": "uint256",
          "name": "_minimumStake",
          "type": "uint256"
        },
        {
          "internalType": "uint32",
          "name": "_lockPeriod",
          "type": "uint32"
        }
      ],
      "name": "initialize",
      "outputs": [],
      "stateMutability": "payable",
      "type": "function"
    },
    {
      "inputs": [
        {
          "internalType": "address",
          "name": "_escrowAddress",
          "type": "address"
        }
      ],
      "name": "isAllocation",
      "outputs": [
        {
          "internalType": "bool",
          "name": "",
          "type": "bool"
        }
      ],
      "stateMutability": "view",
      "type": "function"
    },
    {
      "inputs": [],
      "name": "lockPeriod",
      "outputs": [
        {
          "internalType": "uint32",
          "name": "",
          "type": "uint32"
        }
      ],
      "stateMutability": "view",
      "type": "function"
    },
    {
      "inputs": [],
      "name": "minimumStake",
      "outputs": [
        {
          "internalType": "uint256",
          "name": "",
          "type": "uint256"
        }
      ],
      "stateMutability": "view",
      "type": "function"
    },
    {
      "inputs": [],
      "name": "owner",
      "outputs": [
        {
          "internalType": "address",
          "name": "",
          "type": "address"
        }
      ],
      "stateMutability": "view",
      "type": "function"
    },
    {
      "inputs": [],
      "name": "proxiableUUID",
      "outputs": [
        {
          "internalType": "bytes32",
          "name": "",
          "type": "bytes32"
        }
      ],
      "stateMutability": "view",
      "type": "function"
    },
    {
      "inputs": [],
      "name": "renounceOwnership",
      "outputs": [],
      "stateMutability": "nonpayable",
      "type": "function"
    },
    {
      "inputs": [],
      "name": "rewardPool",
      "outputs": [
        {
          "internalType": "address",
          "name": "",
          "type": "address"
        }
      ],
      "stateMutability": "view",
      "type": "function"
    },
    {
      "inputs": [
        {
          "internalType": "uint32",
          "name": "_lockPeriod",
          "type": "uint32"
        }
      ],
      "name": "setLockPeriod",
      "outputs": [],
      "stateMutability": "nonpayable",
      "type": "function"
    },
    {
      "inputs": [
        {
          "internalType": "uint256",
          "name": "_minimumStake",
          "type": "uint256"
        }
      ],
      "name": "setMinimumStake",
      "outputs": [],
      "stateMutability": "nonpayable",
      "type": "function"
    },
    {
      "inputs": [
        {
          "internalType": "address",
          "name": "_rewardPool",
          "type": "address"
        }
      ],
      "name": "setRewardPool",
      "outputs": [],
      "stateMutability": "nonpayable",
      "type": "function"
    },
    {
      "inputs": [
        {
          "internalType": "address",
          "name": "_slasher",
          "type": "address"
        },
        {
          "internalType": "address",
          "name": "_staker",
          "type": "address"
        },
        {
          "internalType": "address",
          "name": "_escrowAddress",
          "type": "address"
        },
        {
          "internalType": "uint256",
          "name": "_tokens",
          "type": "uint256"
        }
      ],
      "name": "slash",
      "outputs": [],
      "stateMutability": "nonpayable",
      "type": "function"
    },
    {
      "inputs": [
        {
          "internalType": "uint256",
          "name": "_tokens",
          "type": "uint256"
        }
      ],
      "name": "stake",
      "outputs": [],
      "stateMutability": "nonpayable",
      "type": "function"
    },
    {
      "inputs": [
        {
          "internalType": "uint256",
          "name": "",
          "type": "uint256"
        }
      ],
      "name": "stakers",
      "outputs": [
        {
          "internalType": "address",
          "name": "",
          "type": "address"
        }
      ],
      "stateMutability": "view",
      "type": "function"
    },
    {
      "inputs": [
        {
          "internalType": "address",
          "name": "",
          "type": "address"
        }
      ],
      "name": "stakes",
      "outputs": [
        {
          "internalType": "uint256",
          "name": "tokensStaked",
          "type": "uint256"
        },
        {
          "internalType": "uint256",
          "name": "tokensAllocated",
          "type": "uint256"
        },
        {
          "internalType": "uint256",
          "name": "tokensLocked",
          "type": "uint256"
        },
        {
          "internalType": "uint256",
          "name": "tokensLockedUntil",
          "type": "uint256"
        }
      ],
      "stateMutability": "view",
      "type": "function"
    },
    {
      "inputs": [],
      "name": "token",
      "outputs": [
        {
          "internalType": "address",
          "name": "",
          "type": "address"
        }
      ],
      "stateMutability": "view",
      "type": "function"
    },
    {
      "inputs": [
        {
          "internalType": "address",
          "name": "newOwner",
          "type": "address"
        }
      ],
      "name": "transferOwnership",
      "outputs": [],
      "stateMutability": "nonpayable",
      "type": "function"
    },
    {
      "inputs": [
        {
          "internalType": "uint256",
          "name": "_tokens",
          "type": "uint256"
        }
      ],
      "name": "unstake",
      "outputs": [],
      "stateMutability": "nonpayable",
      "type": "function"
    },
    {
      "inputs": [
        {
          "internalType": "address",
          "name": "newImplementation",
          "type": "address"
        }
      ],
      "name": "upgradeTo",
      "outputs": [],
      "stateMutability": "nonpayable",
      "type": "function"
    },
    {
      "inputs": [
        {
          "internalType": "address",
          "name": "newImplementation",
          "type": "address"
        },
        {
          "internalType": "bytes",
          "name": "data",
          "type": "bytes"
        }
      ],
      "name": "upgradeToAndCall",
      "outputs": [],
      "stateMutability": "payable",
      "type": "function"
    },
    {
      "inputs": [],
      "name": "withdraw",
      "outputs": [],
      "stateMutability": "nonpayable",
      "type": "function"
    }
  ],
  "bytecode": "0x60a080604052346100dc57306080526000549060ff8260081c1661008a575060ff8082160361004f575b60405161266c90816100e28239608051818181610cc701528181610e51015261128b0152f35b60ff90811916176000557f7f26b83ff96e1f2b6a682f133852f6798a09c465da95921460cefb3847402498602060405160ff8152a138610029565b62461bcd60e51b815260206004820152602760248201527f496e697469616c697a61626c653a20636f6e747261637420697320696e697469604482015266616c697a696e6760c81b6064820152608490fd5b600080fdfe6040608081526004908136101561001557600080fd5b600091823560e01c80630e0229231461174f57806316934fc4146116f55780631af963aa146116af578063233e99031461166f5780632e17de78146114965780633659cfe6146112645780633aa63c61146110925780633ccfd60b146110785780633fd8b02f146110535780634f1ef28614610dd857806352a9039c14610d6f57806352d1902d14610cb257806363c28db114610c7a57806366666aa914610c5157806368f39a0714610a6a5780636c5ac81e146108c957806370b97cb514610826578063715018a6146107da57806378238c371461076b5780638da5cb5b1461074257806398c657dc1461070f578063a23c44b1146106c0578063a694fc3a14610535578063b78b52df14610357578063e73e14bf1461031d578063ec5ffac2146102fe578063f1d60d66146102b1578063f2fde38b14610223578063f489f23b146101e9578063fc0c546a146101bc5763fd5e6dd11461017657600080fd5b346101b85760203660031901126101b857359160ce548310156101b5575061019f60209261190b565b905491519160018060a01b039160031b1c168152f35b80fd5b8280fd5b5050346101e557816003193601126101e55760c95490516001600160a01b039091168152602090f35b5080fd5b8382346101e55760203660031901126101e5573563ffffffff8116810361021e5761021b90610216611cde565b612150565b80f35b600080fd5b50346101b85760203660031901126101b85761023d6117f7565b91610246611cde565b6001600160a01b0383161561025f578361021b84611f3e565b906020608492519162461bcd60e51b8352820152602660248201527f4f776e61626c653a206e6577206f776e657220697320746865207a65726f206160448201526564647265737360d01b6064820152fd5b509190346101e55760203660031901126101e5576102d56102d06117f7565b611f75565b9160058310156102eb5760208383519015158152f35b634e487b7160e01b815260218452602490fd5b5050346101e557816003193601126101e55760209060cb549051908152f35b5050346101e55760203660031901126101e55760209181906001600160a01b036103456117f7565b16815260cd8452205415159051908152f35b5090346101b857806003193601126101b8576103716117f7565b6001600160a01b03808216939092919060243590610390861515611ade565b33875260209260cd8452826103ae6103a9878b20611967565b611cb9565b106104df576103c2906102d0841515611999565b60058110156104cc5761048d5783517fe994fee7ff4d4c7994071d0b9ed626d9b41e4ed5c6126806241b1906a774a2a0949392916103ff8261180d565b87825283820196338852858301938452606083019743895260808401918b83528a8c5260cf875280888d209551169060018060a01b03199182875416178655600186019251169082541617905583516002840155875160038401555191015533875260cd82528287206104796001835192019182546120e3565b90555193519082519485528401523392a380f35b835162461bcd60e51b81529081018390526019602482015278416c6c6f636174696f6e20616c72656164792065786973747360381b6044820152606490fd5b634e487b7160e01b885260218252602488fd5b845162461bcd60e51b8152808301859052602a60248201527f496e73756666696369656e7420616d6f756e74206f6620746f6b656e7320696e60448201526920746865207374616b6560b01b6064820152608490fd5b509190346101e5576020806003193601126101b857833591610558831515611999565b33845260cd825261056a818520611967565b61059761058d85610588845186860151610582611d36565b91612208565b6120e3565b60cb5411156119e1565b5115610614575b60c95481516323b872dd60e01b81850152336024820152306044820152606480820186905281526000805160206126178339815191529392916105f391906001600160a01b03166105ee8261180d565b612362565b33855260cd82528085206106088582546120e3565b9055519283523392a280f35b805161061f8161183e565b8481526003838201868152838301878152606084019188835233895260cd8752858920945185555160018501555160028401555191015560ce54600160401b8110156106ad5760008051602061261783398151915293949550806001610688920160ce5561190b565b81546001600160a01b0360039290921b91821b19163390911b1790558493925061059e565b634e487b7160e01b855260418652602485fd5b5050346101e55760203660031901126101e55761070d610704826080946106e56117f7565b6106ed611b3b565b506001600160a01b0316815260cd60205220611967565b915180926118e8565bf35b509190346101e55760203660031901126101e55761072e6102d06117f7565b90519160058210156102eb57602083838152f35b5050346101e557816003193601126101e55760335490516001600160a01b039091168152602090f35b83346101b55760203660031901126101b5576107856117f7565b61078d611cde565b6001600160a01b03166107a1811515611ade565b60ca80546001600160a01b031916821790557f173d73afad648e625c4a53878536f7a2debed1f51a04f21d728bce3cf534fcc18280a280f35b83346101b557806003193601126101b5576107f3611cde565b603380546001600160a01b031981169091556000906001600160a01b03166000805160206125578339815191528280a380f35b8284346101b557806003193601126101b55790610841611b74565b909180519281840191845280518092526060840191602080920190865b8181106108ac57505050838203818501528080845193848152019301945b8281106108895784840385f35b9091928260808261089d6001948a516118e8565b0196019101949291909461087c565b82516001600160a01b03168552938301939183019160010161085e565b50919060603660031901126101e5576108e06117f7565b9260443560243563ffffffff8216820361021e5784549560ff8760081c161593848095610a5d575b8015610a46575b156109ec57508394959661099d94600160ff1983161789556109db575b5061093d60ff885460081c16611ede565b61094633611f3e565b61095660ff885460081c16611ede565b60c980546001600160a01b0319166001600160a01b0392909216919091179055610981811515611999565b8060cb556000805160206125b7833981519152600080a2612150565b6109a5575080f35b60207f7f26b83ff96e1f2b6a682f133852f6798a09c465da95921460cefb38474024989161ff001984541684555160018152a180f35b61ffff19166101011787553861092c565b608490602087519162461bcd60e51b8352820152602e60248201527f496e697469616c697a61626c653a20636f6e747261637420697320616c72656160448201526d191e481a5b9a5d1a585b1a5e995960921b6064820152fd5b50303b15801561090f5750600160ff89161461090f565b50600160ff891610610908565b508290346101e557602090816003193601126101b857610a886117f7565b6001600160a01b039485821693909190610aa3851515611ade565b84865260cf815282862096600188018181541693338503610bfa57610ac790611f75565b6005811015610be7578603610b9a5785890195438755610aeb60038b015443612222565b15610b4b57508760027f9ec6f3fe8a57fd60609439a97d851e335d635eeb931fca0f26d5fc217936b3c69798999a01805495825260cd8552600187832001610b37815488610582611d36565b90555554169454908351928352820152a380f35b855162461bcd60e51b81529081018490526024808201527f416c6c6f636174696f6e2063616e6e6f7420626520636c6f73656420736f206560448201526361726c7960e01b6064820152608490fd5b845162461bcd60e51b8152808701849052602160248201527f416c6c6f636174696f6e20686173206e6f20636f6d706c6574656420737461746044820152606560f81b6064820152608490fd5b634e487b7160e01b895260218752602489fd5b855162461bcd60e51b8152808801859052602b60248201527f4f6e6c792074686520616c6c6f6361746f722063616e20636c6f73652074686560448201526a1030b63637b1b0ba34b7b760a91b6064820152608490fd5b5050346101e557816003193601126101e55760ca5490516001600160a01b039091168152602090f35b5050346101e55760203660031901126101e55760209181906001600160a01b03610ca26117f7565b16815260cd845220549051908152f35b5082346101b557806003193601126101b557507f00000000000000000000000000000000000000000000000000000000000000006001600160a01b03163003610d0c57602082516000805160206125378339815191528152f35b6020608492519162461bcd60e51b8352820152603860248201527f555550535570677261646561626c653a206d757374206e6f742062652063616c6044820152771b1959081d1a1c9bdd59da0819195b1959d85d1958d85b1b60421b6064820152fd5b509190346101e55760203660031901126101e55760a0926001600160a01b0392829084610d9a6117f7565b16815260cf60205220908382541693600183015416926002830154916003840154930154938151958652602086015284015260608301526080820152f35b5090806003193601126101b857610ded6117f7565b90602435906001600160401b03821161104f573660238301121561104f5781840135610e18816118cd565b610e24835191826118aa565b818152866020948583019336602482840101116101b8578060248893018637830101526001600160a01b037f0000000000000000000000000000000000000000000000000000000000000000811690610e7f30831415611a40565b610e9c600080516020612537833981519152928284541614611a8f565b610ea4611cde565b6000805160206124f78339815191525460ff1615610ecc5750505050505061021b915061223d565b8693949596169085516352d1902d60e01b815287818a81865afa60009181611020575b50610f3c57865162461bcd60e51b8152808a01899052602e60248201526000805160206125f783398151915260448201526d6f6e206973206e6f74205555505360901b6064820152608490fd5b979192949795939503610fdd5750610f538461223d565b600080516020612577833981519152600080a2815115801590610fd5575b610f7e575b505050505080f35b610fca94600092660819985a5b195960ca1b836000805160206125d783398151915286955198610fad8a61188f565b60278a528901528701525190845af4610fc4612451565b91612481565b503880808080610f76565b506001610f71565b825162461bcd60e51b8152908101869052602960248201526000805160206125978339815191526044820152681a58589b195555525160ba1b6064820152608490fd5b9091508881813d8311611048575b61103881836118aa565b8101031261021e57519038610eef565b503d61102e565b8480fd5b5050346101e557816003193601126101e55760209063ffffffff60cc54169051908152f35b83346101b557806003193601126101b55761021b33611d9a565b509190346101e55760803660031901126101e5576110ae6117f7565b6001600160a01b0391602435838116929083900361104f576044359380851680950361126057606435916110e0611cde565b6110eb861515611ade565b84875260cd60205283872086885260cf602052600285892061110e861515611999565b01805485116112125760018201611129815487610582611d36565b9055611139815486610582611d36565b9055611149815485610582611d36565b9055611159838360ca5416611e9e565b8160ca541691823b1561120e578660848a8a80948951968795869463e2ff99ef60e01b86528501528b602485015216968760448401528860648401525af18015611204576111d4575b50825191825260208201527f71a8c830f4b619fc8248691f28f33646d6d9553a9fe6f7ba80e179fd391779ba9190a380f35b9095906001600160401b0381116111f157835294955085386111a2565b634e487b7160e01b825260418852602482fd5b84513d89823e3d90fd5b8780fd5b855162461bcd60e51b81526020818c0152602260248201527f536c61736820746f6b656e732065786365656420616c6c6f6361746564206f6e604482015261657360f01b6064820152608490fd5b8580fd5b5090346101b857602080600319360112611492576112806117f7565b916001600160a01b037f000000000000000000000000000000000000000000000000000000000000000081166112b830821415611a40565b6112d5600080516020612537833981519152918383541614611a8f565b6112dd611cde565b8251916112e983611874565b8783526000805160206124f78339815191525460ff161561131357505050505061021b915061223d565b8592939495169084516352d1902d60e01b815286818981865afa89918161145f575b5061138257855162461bcd60e51b8152808901889052602e60248201526000805160206125f783398151915260448201526d6f6e206973206e6f74205555505360901b6064820152608490fd5b969192949593960361141c575090859161139b8461223d565b6000805160206125778339815191528380a2845115801590611415575b6113c457505050505080f35b61140a948291660819985a5b195960ca1b8651966113e18861188f565b602788526000805160206125d78339815191528389015287015281519101845af4610fc4612451565b503880808381610f76565b50816113b8565b845162461bcd60e51b8152908101839052602960248201526000805160206125978339815191526044820152681a58589b195555525160ba1b6064820152608490fd5b9091508781813d831161148b575b61147781836118aa565b8101031261148757519038611335565b8980fd5b503d61146d565b8380fd5b5090346101b85760203660031901126101b85733835260cd6020528083208235926114c2841515611999565b836114cf6103a984611967565b1061162c57509060038261153361152361151a61150c7fa5ae833d0bb1dcd632d98a8b70973e8516812898e19bf27b70071ebc8dc52c0197611967565b868151910151610582611d36565b87610582611d36565b801590811561161f575b506119e1565b61154461153f82611967565b611d6f565b611611575b61157763ffffffff60cc54169560028301968754918261158c575b61156e91926120e3565b809755436120e3565b9182910155815193845260208401523392a280f35b61160a6115bd61156e936115b7846115b1886115ac8d8d01544390612222565b6122ed565b926122ed565b906120e3565b6115c783866120e3565b906116058a516115d681611859565b601a815279536166654d6174683a206469766973696f6e206279207a65726f60301b60208201528315156121e0565b6122cd565b9150611564565b61161a33611d9a565b611549565b905060cb5411153861152d565b606490602084519162461bcd60e51b8352820152601e60248201527f496e73756666696369656e7420616d6f756e7420746f20756e7374616b6500006044820152fd5b8382346101e55760203660031901126101e5573561168b611cde565b611696811515611999565b8060cb556000805160206125b78339815191528280a280f35b5050346101e55760203660031901126101e5576020916116ec906103a99083906001600160a01b036116df6117f7565b16815260cd865220611967565b15159051908152f35b5050346101e55760203660031901126101e55760809181906001600160a01b0361171d6117f7565b16815260cd60205220908154916001810154916003600283015492015492815194855260208501528301526060820152f35b508290346101e55760203660031901126101e5578260a09361176f6117f7565b9361177861193c565b5061178161193c565b50600180871b03809516815260cf60205220908051926117a08461180d565b84835416948585528060018501541660208601908152608060028601549385880194855260038701549660608901978852015496019586528351968752511660208601525190840152516060830152516080820152f35b600435906001600160a01b038216820361021e57565b60a081019081106001600160401b0382111761182857604052565b634e487b7160e01b600052604160045260246000fd5b608081019081106001600160401b0382111761182857604052565b604081019081106001600160401b0382111761182857604052565b602081019081106001600160401b0382111761182857604052565b606081019081106001600160401b0382111761182857604052565b601f909101601f19168101906001600160401b0382119082101761182857604052565b6001600160401b03811161182857601f01601f191660200190565b606080918051845260208101516020850152604081015160408501520151910152565b60ce548110156119265760ce60005260206000200190600090565b634e487b7160e01b600052603260045260246000fd5b604051906119498261180d565b60006080838281528260208201528260408201528260608201520152565b906040516119748161183e565b6060600382948054845260018101546020850152600281015460408501520154910152565b156119a057565b60405162461bcd60e51b815260206004820152601960248201527826bab9ba1031329030903837b9b4ba34bb3290373ab6b132b960391b6044820152606490fd5b156119e857565b60405162461bcd60e51b815260206004820152602a60248201527f546f74616c207374616b652069732062656c6f7720746865206d696e696d756d604482015269081d1a1c995cda1bdb1960b21b6064820152608490fd5b15611a4757565b60405162461bcd60e51b815260206004820152602c602482015260008051602061251783398151915260448201526b19195b1959d85d1958d85b1b60a21b6064820152608490fd5b15611a9657565b60405162461bcd60e51b815260206004820152602c602482015260008051602061251783398151915260448201526b6163746976652070726f787960a01b6064820152608490fd5b15611ae557565b60405162461bcd60e51b81526020600482015260176024820152764d75737420626520612076616c6964206164647265737360481b6044820152606490fd5b6001600160401b0381116118285760051b60200190565b60405190611b488261183e565b60006060838281528260208201528260408201520152565b80518210156119265760209160051b010190565b6040805160ce8054808352600091825260209493907fd36cd1c74ef8d7326d8021b776c18fb5a5724b7f7bc93c2f42e43e10ef27d12a90849087820190855b89828210611c9a57505050611bca925003846118aa565b8251918215611c7357611bdc83611b24565b95611bea60405197886118aa565b838752601f19611bf985611b24565b0181835b828110611c5d57505050815b848110611c195750505050509190565b6001906001600160a01b03611c2e8289611b60565b5116845260cd8352611c41858520611967565b611c4b828b611b60565b52611c56818a611b60565b5001611c09565b611c65611b3b565b82828c010152018290611bfd565b9450505050604051611c8481611874565b82815260405192611c9484611874565b83529190565b85546001600160a01b0316845260019586019589955093019201611bb3565b611cdb90611cd381519160406020820151910151906120e3565b610582611d36565b90565b6033546001600160a01b03163303611cf257565b606460405162461bcd60e51b815260206004820152602060248201527f4f776e61626c653a2063616c6c6572206973206e6f7420746865206f776e65726044820152fd5b60405190611d4382611859565b601e82527f536166654d6174683a207375627472616374696f6e206f766572666c6f7700006020830152565b60608101518015908115611d90575b50611d8a576040015190565b50600090565b9050431038611d7e565b6001600160a01b038116600081815260cd602052604090209091611dc061153f83611967565b918215908115611e61575b50611e075781611dfe7f8108595eb6bad3acefa9da467d90cc2217686d5c5ac85460f8b7849c840645fc93602093611e9e565b604051908152a2565b60405162461bcd60e51b815260206004820152602c60248201527f5374616b6520686173206e6f20617661696c61626c6520746f6b656e7320666f60448201526b1c881dda5d1a191c985dd85b60a21b6064820152608490fd5b60028101611e73815486610582611d36565b80915515611e92575b611e8a815485610582611d36565b905538611dcb565b60006003820155611e7c565b60c95460405163a9059cbb60e01b60208201526001600160a01b039283166024820152604480820194909452928352611edc9291166105ee8261183e565b565b15611ee557565b60405162461bcd60e51b815260206004820152602b60248201527f496e697469616c697a61626c653a20636f6e7472616374206973206e6f74206960448201526a6e697469616c697a696e6760a81b6064820152608490fd5b603380546001600160a01b039283166001600160a01b031982168117909255909116600080516020612557833981519152600080a3565b6001600160a01b03908116600081815260cf602052604081206001810154909391929116156120dd5760209260405193848093631006976960e11b825260049687915afa9182156120d2578392612095575b506003810154151580612088575b80612062575b6120595783015415918280612048575b61203f5782612001575b5050611cdb5750600390565b909150600682101561202c5750818114908115612021575b503880611ff5565b600591501438612019565b634e487b7160e01b815260218352602490fd5b50505050600290565b5060068210156102eb578115611feb565b50505050600190565b5060068210156120755760018214611fdb565b634e487b7160e01b835260218452602483fd5b5060028101541515611fd5565b9091506020813d6020116120ca575b816120b1602093836118aa565b810103126101b8575160068110156101b8579038611fc7565b3d91506120a4565b6040513d85823e3d90fd5b50905090565b9081019081811161213a5781106120f75790565b60405162461bcd60e51b815260206004820152601b60248201527a536166654d6174683a206164646974696f6e206f766572666c6f7760281b6044820152606490fd5b634e487b7160e01b600052601160045260246000fd5b63ffffffff16612161811515611999565b8063ffffffff1960cc54161760cc557f4cabd6339016cba9857f365bca7bc3c7e1976823b85052fd7281d313f52c8ae8600080a2565b6020808252825181830181905290939260005b8281106121cc57505060409293506000838284010152601f8019910116010190565b8181018601518482016040015285016121aa565b156121e85750565b60405162461bcd60e51b81529081906122049060048301612197565b0390fd5b9161221690838311156121e0565b810390811161213a5790565b8181111561223657611cdb91610582611d36565b5050600090565b803b156122725760008051602061253783398151915280546001600160a01b0319166001600160a01b03909216919091179055565b60405162461bcd60e51b815260206004820152602d60248201527f455243313936373a206e657720696d706c656d656e746174696f6e206973206e60448201526c1bdd08184818dbdb9d1c9858dd609a1b6064820152608490fd5b81156122d7570490565b634e487b7160e01b600052601260045260246000fd5b9081156122365780820291808304820361213a5761230b90836122cd565b036123135790565b60405162461bcd60e51b815260206004820152602160248201527f536166654d6174683a206d756c7469706c69636174696f6e206f766572666c6f6044820152607760f81b6064820152608490fd5b60018060a01b0316906123bb60405161237a81611859565b6020938482527f5361666545524332303a206c6f772d6c6576656c2063616c6c206661696c6564858301526000808587829751910182855af1610fc4612451565b80519182159184831561242d575b5050509050156123d65750565b6084906040519062461bcd60e51b82526004820152602a60248201527f5361666545524332303a204552433230206f7065726174696f6e20646964206e6044820152691bdd081cdd58d8d9595960b21b6064820152fd5b9193818094500103126101e5578201519081151582036101b55750803880846123c9565b3d1561247c573d90612462826118cd565b9161247060405193846118aa565b82523d6000602084013e565b606090565b919290156124e35750815115612495575090565b3b1561249e5790565b60405162461bcd60e51b815260206004820152601d60248201527f416464726573733a2063616c6c20746f206e6f6e2d636f6e74726163740000006044820152606490fd5b8251909150156121e85750805190602001fdfe4910fdfa16fed3260ed0e7147f7cc6da11a60208b5b9406d12a635614ffd914346756e6374696f6e206d7573742062652063616c6c6564207468726f75676820360894a13ba1a3210667c828492db98dca3e2076cc3735a920a3ca505d382bbc8be0079c531659141344cd1fd0a4f28419497f9722a3daafe3b4186f6b6457e0bc7cd75a20ee27fd9adebab32041f755214dbc6bffa90cc0225b39da2e5c2d3b45524331393637557067726164653a20756e737570706f727465642070726f784ae07ff10245d5c3330b9a15e8c6b8644ea81b656ff7d5428edda75e77d061cd416464726573733a206c6f772d6c6576656c2064656c65676174652063616c6c45524331393637557067726164653a206e657720696d706c656d656e746174690a7bb2e28cc4698aac06db79cf9163bfcc20719286cf59fa7d492ceda1b8edc2a26469706673582212204687eb6c94362aa38366fdf0d22654f7a62910bcc4bf2db26ccf644e67e06a4a64736f6c63430008170033",
  "linkReferences": {},
  "deployedLinkReferences": {}
}